:020000040200F8
:100000005AA55AA50104000030000002FFFFFFFFBF
:1000100000080002FFFFFFFFFFFFFFFFFFFFFFFFE2
:10002000FFFFFFFFFFFFFFFFC0D401000000000043
:10003000DDEFBEAC020100006800000258000002C3
:1000400000000000000000000000000000000000B0
:100050000000000000000000A55A0002000A000293
:100060000002000080000002A55A00010008000202
:1000700000020000900000020000000000000000EC
:100080000000000000000000000000000000000070
:100090000000000000000000000000000000000060
:1008000000040020310F0002AB220002AD220002E2
:10081000AF220002B1220002B3220002A92200028C
:10082000A9220002A9220002A9220002B522000288
:10083000B7220002A9220002B9220002013A0002F6
:10084000FF30000209310002133100021D310002A5
:1008500027310002313100023B31000245310002F4
:100860004F31000259310002633100026D31000244
:1008700077310002813100028B3100029531000294
:100880009F310002A9310002B3310002BD310002E4
:10089000C7310002D1310002DB310002E531000234
:1008A000EF310002F9310002033200020D32000282
:1008B00017320002213200022B32000235320002D0
:1008C0003F320002BB220002BD220002BF22000212
:1008D000C1220002C3220002C5220002A922000296
:1008E000C7220002C9220002CB220002CD22000250
:1008F000CF220002D1220002A9220002D32200024C
:10090000A9220002D5220002A9220002D722000259
:10091000A9220002D9220002DB220002DD2200020D
:10092000DF220002A9220002E1220002A922000225
:10093000E3220002E5220002E7220002E92200028F
:10094000EB220002ED220002EF220002F12200025F
:10095000F3220002F5220002F7220002F92200022F
:10096000FB220002FD220002FF22000201230002FE
:100970000323000205230002A9220002A92200028B
:10098000A9220002A922000207230002A9220002D4
:10099000092300020B2300020D2300020F23000293
:1009A0001123000213230002152300021723000263
:1009B000192300021B2300021D2300021F23000233
:1009C0002123000223230002252300022723000203
:1009D000292300022B2300022D2300022F230002D3
:1009E00031230002332300023523000237230002A3
:1009F000392300023B2300023D2300023F23000273
:100A00004123000243230002452300024723000242
:100A1000492300024B2300024D2300024F23000212
:100A200051230002532300025523000257230002E2
:100A3000592300025B2300025D2300025F230002B2
:100A40006123000263230002652300026723000282
:100A5000692300026B2300026D2300026F23000252
:100A60007123000273230002752300027723000222
:100A7000792300027B2300027D2300027F230002F2
:100A800081230002832300028523000287230002C2
:100A9000892300028B2300028D2300028F23000292
:100AA00091230002A9220002A9220002A922000229
:100AB000A92200029323000295230002972300023B
:100AC000992300029B2300029D2300029F23000222
:100AD000A1230002A3230002A5230002A7230002F2
:100AE000A9230002AB230002AD230002AF230002C2
:100AF000B1230002B3230002B5230002B723000292
:100B0000B9230002BB230002BD230002BF23000261
:100B1000C1230002C3230002C5230002C723000231
:100B2000C9230002CB230002CD230002CF23000201
:100B3000D1230002D3230002D5230002D7230002D1
:100B4000D9230002DB230002DD230002DF230002A1
:100B5000E1230002E3230002E5230002E723000271
:100B6000A9220002E9230002EB230002ED23000288
:100B7000EF230002F1230002F3230002A922000266
:100B8000F5230002A9220002F7230002F923000244
:100B9000FB230002FD230002FF23000201240002C8
:100BA000A9220002A9220002032400020524000257
:100BB00007240002092400020B2400020D24000275
:100BC0000F24000211240002132400021524000245
:040BD00017240002E4
:100C000031313A34393A303600000000446563200F
:100C100032322032303234004275696C64202573E0
:100C20002025730A0000000048656C6C6F20576F28
:100C3000726C64210D0A000001010000A0028A010B
:100C40000101000000050003010100006A0A4006DE
:100C5000010100004001C00001010101000100008C
:100C60000100050000366E010000000000000000D9
:100C700000800000010032030001010200000105B4
:100C80000040054002000000000000000A000000D3
:100C90000000000000430440000000000040054048
:100CA00003000000000000000A0000000000000037
:100CB000004304400000000000040000E04B00027C
:100CC000E04B00020100000090000220E04B000217
:100CD000FC4B00020100000000C201000000000106
:100CE0000101000008000F001100120013001400A1
:100CF000150016001B001C001D001E001F00200018
:100D000021002200230024002500260027002800BF
:100D100029002A002B002C002D002E002F0030006F
:100D200031003400350036003700380039003A0011
:100D30003B0040004100430044004600470048009B
:100D400049004A004B004C004D004E00510052003B
:100D5000530054005500580059005A005B005C00D5
:100D60005D006000620065006600670068006A0060
:100D700070007100720073007400770079007B00CE
:100D80007C007E007F008000810082008300840060
:100D900085008600870088008900000000C00640AA
:100DA00000000740004007400080074000C00740A7
:100DB00000000840004008400080084000C0084093
:100DC0000000094008090A0B0C0D0E0F101100005D
:100DD0002D002F003100A500A600A700C000C10013
:100DE000C200C30099390002A3390002AD390002E4
:100DF000B7390002C1390002CB39000200000000FF
:100E0000000000000000000000000000666E692B7A
:100E100000000000666E69006E616E00666E692DEE
:100E20000000000000000000000000000000F03F93
:100E300000000000000024400000000000005940B5
:100E40000000000000408F40000000000088C34008
:100E500000000000006AF8400000000080842E417D
:100E600000000000D01263410000000084D79741C9
:100E70000000000065CDCD4122490C684FF0010310
:100E80001C40DFF884B0DBF8000040F00700CBF82E
:100E90000000DFF878B0DBF8000040F00700CBF886
:100EA00000001B491B4A521A013A06DD4FF05A3026
:100EB0004FF05A3309C1083AFCDA1749174A521A57
:100EC000013A06DD4FF05A304FF05A3309C1083A63
:100ED000FCDA1349134A521A013A06DD4FF05A3030
:100EE0004FF05A3309C1083AFCDA0F490F4A521A37
:100EF000013A06DD4FF05A304FF05A3309C1083A33
:100F0000FCDA704700C01F4090EF00E094EF00E073
:100F10000000000000040000000400000080000049
:100F20000000002000000220000002200000062037
:100F300072B64FF000014FF000024FF000034FF087
:100F400000044FF000054FF000064FF00007B846D0
:100F5000B946BA46BB46BC46FFF78EFF06488546F3
:100F6000064880470648804706488047064880472D
:100F700062B601F0A9F8FEE7000400206521000236
:100F800071220002D53900026D22000281F0004179
:100F900002E000BF83F0004330B54FEA41044FEA5E
:100FA000430594EA050F08BF90EA020F1FBF54EAF9
:100FB000000C55EA020C7FEA645C7FEA655C00F095
:100FC000E2804FEA5454D4EB5555B8BF6D420CDD66
:100FD0002C4480EA020281EA030382EA000083EAE9
:100FE000010180EA020281EA0303362D88BF30BD89
:100FF00011F0004F4FEA01314FF4801C4CEA1131DF
:1010000002D0404261EB410113F0004F4FEA03333D
:101010004CEA133302D0524263EB430394EA050FC8
:1010200000F0A780A4F10104D5F1200E0DDB02FA37
:101030000EFC22FA05F2801841F1000103FA0EF2CB
:10104000801843FA05F359410EE0A5F120050EF191
:10105000200E012A03FA0EFC28BF4CF0020C43FAC2
:1010600005F3C01851EBE37101F0004507D54FF0CF
:10107000000EDCF1000C7EEB00006EEB0101B1F51F
:10108000801F1BD3B1F5001F0CD349085FEA300065
:101090004FEA3C0C04F101044FEA445212F5800F70
:1010A00080F09A80BCF1004F08BF5FEA500C50F10D
:1010B000000041EB045141EA050130BD5FEA4C0CF0
:1010C000404141EB0101013C28BFB1F5801FE9D24D
:1010D00091F0000F04BF01460020B1FA81F308BF70
:1010E0002033A3F10B03B3F120020CDA0C3208DD3C
:1010F00002F1140CC2F10C0201FA0CF021FA02F117
:101100000CE002F11402D8BFC2F1200C01FA02F186
:1011100020FA0CFCDCBF41EA0C019040E41AA2BFAB
:1011200001EB0451294330BD6FEA04041F3C1CDA73
:101130000C340EDC04F11404C4F1200220FA04F093
:1011400001FA02F340EA030021FA04F345EA03013D
:1011500030BDC4F10C04C4F1200220FA02F001FAFF
:1011600004F340EA0300294630BD21FA04F0294681
:1011700030BD94F0000F83F4801306BF81F480111A
:101180000134013D4EE77FEA645C18BF7FEA655C8D
:1011900029D094EA050F08BF90EA020F05D054EA5F
:1011A000000C04BF1946104630BD91EA030F1EBF64
:1011B0000021002030BD5FEA545C05D14000494168
:1011C00028BF41F0004130BD14F580043CBF01F55B
:1011D000801130BD01F0004545F0FE4141F4700141
:1011E0004FF0000030BD7FEA645C1ABF194610461C
:1011F0007FEA655C1CBF0B46024650EA013406BF1D
:1012000052EA033591EA030F41F4002130BD00BFDB
:1012100090F0000F04BF0021704730B54FF4806498
:1012200004F132044FF000054FF0000150E700BF19
:1012300090F0000F04BF0021704730B54FF4806478
:1012400004F1320410F0004548BF40424FF0000165
:101250003EE700BF42004FEAE2014FEA31014FEAA8
:1012600002701FBF12F07F4393F07F4F81F06051F7
:10127000704732F07F4208BF704793F07F4F04BF42
:1012800041F40021704730B54FF4607401F000451F
:1012900021F000411CE700BF50EA010208BF70477F
:1012A00030B54FF000050AE050EA010208BF704770
:1012B00030B511F0004502D5404261EB41014FF4D9
:1012C000806404F132045FEA915C3FF4D8AE4FF0E1
:1012D00003025FEADC0C18BF03325FEADC0C18BFC4
:1012E000033202EBDC02C2F1200300FA03FC20FA15
:1012F00002F001FA03FE40EA0E0021FA02F1144462
:10130000BDE600BF70B54FF0FF0C4CF4E06C1CEA7A
:1013100011541DBF1CEA135594EA0C0F95EA0C0FEB
:1013200000F0DEF82C4481EA030621EA4C5123EA5E
:101330004C5350EA013518BF52EA033541F480118D
:1013400043F4801338D0A0FB02CE4FF00005E1FB40
:1013500002E506F00042E0FB03E54FF00006E1FB8A
:1013600003569CF0000F18BF4EF0010EA4F1FF04CD
:10137000B6F5007F64F5407404D25FEA4E0E6D410D
:1013800046EB060642EAC62141EA55514FEAC5201E
:1013900040EA5E504FEACE2EB4F1FD0C88BFBCF59A
:1013A000E06F1ED8BEF1004F08BF5FEA500E50F14B
:1013B000000041EB045170BD06F0004646EA010111
:1013C00040EA020081EA0301B4EB5C04C2BFD4EB43
:1013D0000C0541EA045170BD41F480114FF0000E3C
:1013E000013C00F3AB8014F1360FDEBF002001F0AA
:1013F000004170BDC4F10004203C35DA0C341BDC24
:1014000004F11404C4F1200500FA05F320FA04F0F5
:1014100001FA05F240EA020001F0004221F0004129
:1014200010EBD37021FA04F642EB06015EEA430E9C
:1014300008BF20EAD37070BDC4F10C04C4F12005CC
:1014400000FA04F320FA05F001FA04F240EA02007F
:1014500001F0004110EBD37041F100015EEA430E50
:1014600008BF20EAD37070BDC4F1200500FA05F270
:101470004EEA020E20FA04F301FA05F243EA0203EF
:1014800021FA04F001F0004121FA04F220EA0200FE
:1014900000EBD3705EEA430E08BF20EAD37070BD44
:1014A00094F0000F0FD101F00046400041EB010124
:1014B00011F4801F08BF013CF7D041EA060195F006
:1014C000000F18BF704703F00046520043EB0303C0
:1014D00013F4801F08BF013DF7D043EA06037047AD
:1014E00094EA0C0F0CEA135518BF95EA0C0F0CD0B8
:1014F00050EA410618BF52EA4306D1D181EA0301FE
:1015000001F000414FF0000070BD50EA410606BFF7
:101510001046194652EA430619D094EA0C0F02D13C
:1015200050EA013613D195EA0C0F05D152EA033681
:101530001CBF104619460AD181EA030101F000419F
:1015400041F0FE4141F470014FF0000070BD41F0E8
:10155000FE4141F4780170BD70B54FF0FF0C4CF4C2
:10156000E06C1CEA11541DBF1CEA135594EA0C0FE1
:1015700095EA0C0F00F0A7F8A4EB050481EA030E2E
:1015800052EA03354FEA013100F088804FEA033315
:101590004FF0805545EA131343EA12634FEA0222E3
:1015A00045EA111545EA10654FEA00260EF00041A4
:1015B0009D4208BF964244F1FD0404F5407402D2F6
:1015C0005B084FEA3202B61A65EB03055B084FEA87
:1015D00032024FF480104FF4002CB6EB020E75EB84
:1015E000030E22BFB61A754640EA0C005B084FEAAC
:1015F0003202B6EB020E75EB030E22BFB61A754629
:1016000040EA5C005B084FEA3202B6EB020E75EB73
:10161000030E22BFB61A754640EA9C005B084FEAEB
:101620003202B6EB020E75EB030E22BFB61A7546F8
:1016300040EADC0055EA060E18D04FEA051545EAE7
:1016400016754FEA06164FEAC30343EA52734FEA90
:10165000C2025FEA1C1CC0D111F4801F0BD141EA09
:1016600000014FF000004FF0004CB6E711F4801F6E
:1016700004BF01430020B4F1FD0C88BFBCF5E06F4E
:101680003FF6AFAEB5EB030C04BFB6EB020C5FEA5E
:10169000500C50F1000041EB045170BD0EF0004EB3
:1016A0004EEA113114EB5C04C2BFD4EB0C0541EAE5
:1016B000045170BD41F480114FF0000E013C90E6E2
:1016C00045EA060E8DE60CEA135594EA0C0F08BFA6
:1016D00095EA0C0F3FF43BAF94EA0C0F0AD150EAA5
:1016E00001347FF434AF95EA0C0F7FF425AF104638
:1016F00019462CE795EA0C0F06D152EA03353FF460
:10170000FDAE1046194622E750EA410618BF52EADC
:1017100043067FF4C5AE50EA41047FF40DAF52EAB0
:1017200043057FF4EBAE12E74FF0FF3C06E000BF4D
:101730004FF0010C02E000BF4FF0010C4DF804CD5A
:101740004FEA410C7FEA6C5C4FEA430C18BF7FEA1A
:101750006C5C1BD001B050EA410C0CBF52EA430C48
:1017600091EA030F02BF90EA020F0020704710F1C8
:10177000000F91EA030F58BF994208BF90422CBF57
:10178000D8176FEAE37040F0010070474FEA410C50
:101790007FEA6C5C02D150EA013C07D14FEA430C6E
:1017A0007FEA6C5CD6D152EA033CD3D05DF8040BDF
:1017B000704700BF8446104662468C461946634611
:1017C00000E000BF01B5FFF7B7FF002848BF10F1E8
:1017D000000F01BD4DF808EDFFF7F4FF0CBF01202D
:1017E00000205DF808FB00BF4DF808EDFFF7EAFFA9
:1017F00034BF012000205DF808FB00BF4DF808ED64
:10180000FFF7E0FF94BF012000205DF808FB00BF58
:101810004DF808EDFFF7CEFF94BF012000205DF8E2
:1018200008FB00BF4DF808EDFFF7C4FF34BF0120EF
:1018300000205DF808FB00BF4FEA410212F50012DC
:1018400015D211D56FF47873B3EB625212D94FEA07
:10185000C12343F0004343EA505311F0004F23FAF1
:1018600002F018BF404270474FF00000704750EA46
:10187000013005D111F0004008BF6FF00040704703
:101880004FF00000704700BF4A0011D212F500125D
:1018900011D20DD56FF47873B3EB62520ED44FEAC8
:1018A000C12343F0004343EA505323FA02F0704748
:1018B0004FF00000704750EA013002D14FF0FF3086
:1018C00070474FF00000704780F0004002E000BF1A
:1018D00081F0004142001FBF5FEA410392EA030F1B
:1018E0007FEA226C7FEA236C6AD04FEA1262D2EB65
:1018F0001363C1BFD218414048404140B8BF5B426A
:10190000192B88BF704710F0004F40F4000020F002
:101910007F4018BF404211F0004F41F4000121F018
:101920007F4118BF494292EA030F3FD0A2F1010262
:1019300041FA03FC10EB0C00C3F1200301FA03F1A0
:1019400000F0004302D5494260EB4000B0F5000FC3
:1019500013D3B0F1807F06D340084FEA310102F182
:101960000102FE2A51D2B1F1004F40EBC25008BF34
:1019700020F0010040EA03007047490040EB0000FE
:10198000013A28BFB0F5000FEDD2B0FA80FCACF1FF
:10199000080CB2EB0C0200FA0CF0AABF00EBC2502C
:1019A00052421843BCBFD0401843704792F0000F1A
:1019B00081F4000106BF80F400000132013BB5E76D
:1019C0004FEA41037FEA226C18BF7FEA236C21D0E3
:1019D00092EA030F04D092F0000F08BF0846704748
:1019E00090EA010F1CBF0020704712F07F4F04D116
:1019F000400028BF40F00040704712F100723CBF29
:101A000000F50000704700F0004343F0FE4040F452
:101A1000000070477FEA226216BF08467FEA236310
:101A20000146420206BF5FEA412390EA010F40F4FB
:101A3000800070474FF0000304E000BF10F0004347
:101A400048BF40425FEA000C08BF704743F096432E
:101A500001464FF000001CE050EA010208BF704749
:101A60004FF000030AE000BF50EA010208BF7047D0
:101A700011F0004302D5404261EB41015FEA010CE5
:101A800002BF84460146002043F0B64308BFA3F1DD
:101A90008053A3F50003BCFA8CF2083AA3EBC253BF
:101AA00010DB01FA02FC634400FA02FCC2F12002DE
:101AB000BCF1004F20FA02F243EB020008BF20F015
:101AC0000100704702F1200201FA02FCC2F120027B
:101AD00050EA4C0021FA02F243EB020008BF20EA70
:101AE000DC7070474FF0FF0C1CEAD0521EBF1CEA9E
:101AF000D15392EA0C0F93EA0C0F6FD01A4480EA8C
:101B0000010C400218BF5FEA41211ED04FF0006374
:101B100043EA501043EA5111A0FB01310CF00040A0
:101B2000B1F5000F3EBF490041EAD3715B0040EAC6
:101B3000010062F17F02FD2A1DD8B3F1004F40EB96
:101B4000C25008BF20F00100704790F0000F0CF069
:101B5000004C08BF49024CEA502040EA51207F3A2D
:101B6000C2BFD2F1FF0340EAC250704740F4000008
:101B70004FF00003013A5DDC12F1190FDCBF00F0F9
:101B800000407047C2F10002410021FA02F1C2F1A7
:101B9000200200FA02FC5FEA310040F1000053EA43
:101BA0004C0308BF20EADC70704792F0000F00F091
:101BB000004C02BF400010F4000F013AF9D040EA97
:101BC0000C0093F0000F01F0004C02BF490011F42B
:101BD000000F013BF9D041EA0C018FE70CEAD15329
:101BE00092EA0C0F18BF93EA0C0F0AD030F0004CA9
:101BF00018BF31F0004CD8D180EA010000F000405D
:101C0000704790F0000F17BF90F0004F084691F01A
:101C1000000F91F0004F14D092EA0C0F01D1420254
:101C20000FD193EA0C0F03D14B0218BF084608D11D
:101C300080EA010000F0004040F0FE4040F4000067
:101C4000704740F0FE4040F4400070474FF0FF0CFA
:101C50001CEAD0521EBF1CEAD15392EA0C0F93EA41
:101C60000C0F69D0A2EB030280EA010C49024FEA93
:101C7000402037D04FF0805343EA111143EA10134C
:101C80000CF000408B4238BF5B0042F17D024FF404
:101C9000000C8B4224BF5B1A40EA0C00B3EB510FDF
:101CA00024BFA3EB510340EA5C00B3EB910F24BFC8
:101CB000A3EB910340EA9C00B3EBD10F24BFA3EB4D
:101CC000D10340EADC001B0118BF5FEA1C1CE0D115
:101CD000FD2A3FF650AF8B4240EBC25008BF20F0C8
:101CE000010070470CF0004C4CEA50207F32C2BF1C
:101CF000D2F1FF0340EAC250704740F400004FF0B9
:101D00000003013A37E792F0000F00F0004C02BFE9
:101D1000400010F4000F013AF9D040EA0C0093F0B3
:101D2000000F01F0004C02BF490011F4000F013B0D
:101D3000F9D041EA0C0195E70CEAD15392EA0C0F75
:101D400008D142027FF47DAF93EA0C0F7FF470AFAD
:101D5000084676E793EA0C0F04D14B023FF44CAFF0
:101D600008466EE730F0004C18BF31F0004CCAD185
:101D700030F000427FF45CAF31F000437FF43CAFC1
:101D80005FE700BF42000ED2B2F1FE4F0BD34FF01F
:101D90009E03B3EB126209D44FEA002343F00043E1
:101DA00023FA02F070474FF00000704712F1610F04
:101DB00001D1420202D14FF0FF3070474FF00000D6
:101DC000704700BF53B94AB9002908BF00281CBF9B
:101DD0004FF0FF314FF0FF3000F074B9ADF1080C57
:101DE0006DE904CE00F006F8DDF804E0DDE9022339
:101DF00004B070472DE9F047089E0D46044688461A
:101E0000002B4DD18A42944668D9B2FA82F252B17F
:101E100001FA02F3C2F1200120FA01F10CFA02FCEE
:101E200041EA030894404FEA1C45210CB8FBF5FE3B
:101E30001FFA8CF705FB1E8341EA03430EFB07F1F3
:101E400099420BD91CEB03030EF1FF3080F01E8189
:101E5000994240F21B81AEF1020E63445B1AA4B2B8
:101E6000B3FBF5F005FB103344EA034400FB07F72E
:101E7000A7420AD91CEB040400F1FF3380F008816B
:101E8000A74240F2058164440238E41B40EA0E4058
:101E900000211EB1D4400023C6E90043BDE8F0870D
:101EA0008B4208D9002E00F0EE800021C6E9000523
:101EB0000846BDE8F087B3FA83F100294AD1AB4266
:101EC00002D3824200F2F980841A65EB03030120F9
:101ED0009846002EE2D0C6E90048DFE702B9FFDEEF
:101EE000B2FA82F2002A40F09180A1EB0C054FEA91
:101EF0001C471FFA8CFE0121B5FBF7F307FB1350BB
:101F0000250C45EA00450EFB03F0A84208D91CEB5E
:101F1000050503F1FF3802D2A84200F2CB80434608
:101F20002D1AA4B2B5FBF7F007FB105544EA05449F
:101F30000EFB00FEA64508D91CEB040400F1FF359A
:101F400002D2A64500F2BB802846A4EB0E0440EA6C
:101F500003409EE7C1F120078B4022FA07FC4CEAC0
:101F6000030C20FA07F405FA01F31C43FD404FEA85
:101F70001C4900FA01F3B5FBF9F8200C1FFA8CFE9E
:101F800009FB185540EA054508FB0EF0A84202FA85
:101F900001F20BD91CEB050508F1FF3A80F08880AF
:101FA000A84240F28580A8F1020865442D1AA4B227
:101FB000B5FBF9F009FB105544EA054500FB0EFEA0
:101FC000AE4508D91CEB050500F1FF346CD2AE45D7
:101FD0006AD90238654440EA0840A0FB0294A5EBA8
:101FE0000E05A542C846A64656D353D05EB1B3EB04
:101FF000080265EB0E0505FA07F722FA01F3CD405A
:102000001F43C6E900750021BDE8F087C2F1200337
:1020100020FA03F10CFA02FC25FA03F395400D4374
:102020004FEA1C471FFA8CFEB3FBF7F107FB113098
:102030002B0C43EA004301FB0EF0984204FA02F431
:1020400008D91CEB030301F1FF382FD298422DD998
:10205000023963441B1AADB2B3FBF7F007FB103330
:1020600045EA034500FB0EF3AB4208D91CEB05051E
:1020700000F1FF3816D2AB4214D902386544ED1A8C
:1020800040EA014138E73146304607E78646E5E653
:102090001846FAE64B45A9D2B9EB020864EB0C0EE0
:1020A0000138A3E74046EAE7204694E74146D1E7F6
:1020B000D0467BE7023B654432E7084609E76444C3
:1020C000023842E7704700BF30B583B00023144A9E
:1020D0000121144800F0E6FA0021084600F0C8FD8E
:1020E0001149022000F044FE00F096F90F4A104911
:1020F000104802F05BFD104802F058FD00F020F897
:1021000000250E4C00F027F80195019BA342F9DC55
:10211000019B01330193019BA342F9DDF2E700BF6C
:1021200000000220A4000220800C0002000C00022B
:102130000C0C0002180C0002280C00023F420F0099
:1021400008B501220021084600F022FE01210020EE
:1021500000F029FE08BD08B50121002000F025FE91
:1021600008BD0000F0B583B03B4B1D680023009311
:1021700002230093009B002B40D005F00105374C53
:102180004FF0000C06E063B90CF1010C009B103419
:10219000634533D92246237B022BF4D1002DF2D1A3
:1021A000F2E75668116893689B1B03F003028DF8F1
:1021B00007209DF807209B1A5FEA930E09D0331F72
:1021C0000A1F03EB8E0753F8040F42F8040FBB42BB
:1021D000F9D14FEA8E039DF80720002AD4D0F218D7
:1021E000581E0144164612F8013B01F8013F9DF8C4
:1021F0000730DBB2901B8342F5D8C5E7012300937B
:10220000009B33B3164C174A121B02F003038DF8E0
:1022100007309DF80730D21A920807D004EB8200ED
:102220002346002143F8041B8342FBD192009DF812
:1022300007306BB10C4810440025034600F8015FDD
:102240009DF80710C9B202331B1B9B1A9942F4D8A0
:10225000009B03B0F0BD00BF00C01F40B80C0002DF
:102260000000022090000220FFFF012070470000C4
:102270000A4A0B4B9B1A4FEA930C0A494FF0E02095
:10228000C0F8081D032B07D9002352F8040B41F8AE
:10229000040B01339C45F8D8704700BF00080002CA
:1022A000D40B000200000000FEE7FEE7FEE7FEE7B9
:1022B000FEE7FEE7FEE7FEE7FEE7FEE7FEE7FEE7F6
:1022C000FEE7FEE7FEE7FEE7FEE7FEE7FEE7FEE7E6
:1022D000FEE7FEE7FEE7FEE7FEE7FEE7FEE7FEE7D6
:1022E000FEE7FEE7FEE7FEE7FEE7FEE7FEE7FEE7C6
:1022F000FEE7FEE7FEE7FEE7FEE7FEE7FEE7FEE7B6
:10230000FEE7FEE7FEE7FEE7FEE7FEE7FEE7FEE7A5
:10231000FEE7FEE7FEE7FEE7FEE7FEE7FEE7FEE795
:10232000FEE7FEE7FEE7FEE7FEE7FEE7FEE7FEE785
:10233000FEE7FEE7FEE7FEE7FEE7FEE7FEE7FEE775
:10234000FEE7FEE7FEE7FEE7FEE7FEE7FEE7FEE765
:10235000FEE7FEE7FEE7FEE7FEE7FEE7FEE7FEE755
:10236000FEE7FEE7FEE7FEE7FEE7FEE7FEE7FEE745
:10237000FEE7FEE7FEE7FEE7FEE7FEE7FEE7FEE735
:10238000FEE7FEE7FEE7FEE7FEE7FEE7FEE7FEE725
:10239000FEE7FEE7FEE7FEE7FEE7FEE7FEE7FEE715
:1023A000FEE7FEE7FEE7FEE7FEE7FEE7FEE7FEE705
:1023B000FEE7FEE7FEE7FEE7FEE7FEE7FEE7FEE7F5
:1023C000FEE7FEE7FEE7FEE7FEE7FEE7FEE7FEE7E5
:1023D000FEE7FEE7FEE7FEE7FEE7FEE7FEE7FEE7D5
:1023E000FEE7FEE7FEE7FEE7FEE7FEE7FEE7FEE7C5
:1023F000FEE7FEE7FEE7FEE7FEE7FEE7FEE7FEE7B5
:10240000FEE7FEE7FEE7FEE7FEE7FEE7FEE7FEE7A4
:10241000FEE7FEE7FEE7FEE708B5034A03490320AF
:1024200001F098F808BD00BFD80C0002040002209B
:1024300000B583B08DF8070001220DF107010320DC
:1024400001F06EF903B05DF804FB00000A490A6868
:1024500022F0030200F0030313430B60074A8B686A
:1024600003F00303984204D0013AF8D140F601206A
:1024700070470020704700BF00001F40FFFF1F0093
:1024800070B4174A9669936923F4706343F48073B8
:102490009361144D01208446144603E00F2B08BFBE
:1024A0004FF0FF3C00EB0C03D8B25BB2A26812F015
:1024B000080F10D1013D0BD0A16921F47061020217
:1024C00002F470620A43A261012BE7D19C46E9E75E
:1024D00040F6062000E00020014B9E6170BC704772
:1024E00000001F40FFFF1F00114B9B6813F0200FDF
:1024F00007D00F4B1B6A13F0100F07D10D4B1A6852
:1025000005E0002303604FF4807070470A4A0849D1
:102510000B6A096AC3F303230133B2FBF3F3C1F37C
:10252000054202FB03335B0803600020704700BFD5
:1025300000001F405400022000D8B80570B50446C2
:102540000D4650283BD84F4B13F810604E4C54F8B2
:10255000263013F0010F0BD054F82630C3F30223BA
:10256000013B042B28D8DFE803F00815191E2300CF
:1025700000230B604FF480700BE0444B0B60002095
:1025800054F82630C3F3034301332A68B2FBF3F354
:102590002B6070BD3E4B0B600020F1E73D4B1B688C
:1025A0000B600020ECE73C4B1B680B600020E7E76A
:1025B0000846FFF799FFE3E700200860E0E75628A8
:1025C00021D8A0F15204042C1AD8DFE804F0030744
:1025D0000B1015002E4B0B600020DAE72B4B0B6025
:1025E0000020D6E72B4B1B680B600020D1E72A4B5D
:1025F0001B680B600020CCE70846FFF775FFC8E7B3
:1026000000200860C5E75A283AD8244B9B6803F09D
:102610000303032B31D8DFE803F00223272C1B4BE5
:102620000B6000201D4BDB68C3F303435A1C2B686F
:10263000B3FBF2F32B60582CABD0184AD268C2F32C
:1026400003220132B3FBF2F32B605A2CA1D1134ABF
:10265000D26802F00F020132B3FBF2F32B6098E76D
:102660000846FFF741FFDDE70A4B1B680B600020BF
:10267000D8E70B4B0B600020D4E700200860D1E7BF
:10268000002086E7E40C000200401F4000D8B80597
:10269000C0C62D00540002205800022000001F4038
:1026A000001BB70010B4044C20602171A26023739A
:1026B0006373002010BC70474400022008B5FFF788
:1026C0003DFF08BD70B582B0864640B3436833B362
:1026D000036823B300209C4D9C4CDEF8043013F8B3
:1026E000203015F813C054F82C3023F0010344F8BF
:1026F0002C30DEF8042002EB800293781B0203F4F6
:10270000E063D178090401F470210B43527813433C
:1027100044F82C300130DEF800309842DDD3DEF88A
:102720000840002C00F0E881DEF80C50884B0022B5
:102730001A645A6C5A640320FFF788FE0646002884
:1027400040F0DB81824B5B6923F002032278002A90
:1027500014BF0222002213437D4A5361536923F0C0
:1027600004036278002A14BF042200221343784A2B
:102770005361536923F00803A278002A14BF08228A
:1027800000221343724A5361116921F00101E37879
:102790000B431361136923F002032279002A14BF4B
:1027A0000222002213436A4A1361D36913F0010F16
:1027B00042D1D16921F48071637C1B0203F48073E0
:1027C0000B43D361D36923F01003A17C81F0010195
:1027D00043EA0113D361D36923F00403E27C002AA6
:1027E00014BF042200221343594AD361D36923F052
:1027F0000203227D002A14BF022200221343544AFE
:10280000D361D36923F00803627D002A14BF082234
:10281000002213434E4AD361D16921F00101237C88
:102820000B43D361237C1BB1A2694A4B1A6006E0BB
:10283000484B00221A6002E0A269464B1A60002D44
:1028400064D0AA89424B1A65EA895A651A6CA97A3A
:1028500022F4003242EA41421A641A6C697A22F484
:10286000007242EA41221A641A6C297A22F00202AA
:1028700042EA41021A64237A002B00F09080344B24
:10288000996921F47061A27A120202F470620A431B
:102890009A619A6922F48052617A81F0010142EAD8
:1028A00001329A619A6922F01002617A81F0010185
:1028B00042EA01129A61996921F00101227A0A43E0
:1028C0009A61FFF7DDFD0646002833D1E368224A0E
:1028D0001360002D42D0AA8B1D4B1A66EA8B5A66F4
:1028E0001A6CA97E22F4002242EAC1421A641A6CD0
:1028F000697E22F4006242EAC1221A641A6C297EBF
:1029000022F0080242EAC1021A6450E0104B4FF470
:10291000A0621A654FF440725A651A6C22F40032B4
:102920001A641A6C42F400721A641A6C42F00202C1
:102930001A64A0E7064A936923F001039361064BEA
:1029400000221A60D9E000BFE40C000200401F40E2
:1029500000001F4058000220540002208E4AA2FBB3
:1029600003239B0C03EB8301C9018C4AA2FB0101E9
:10297000490903EB4303DB01A2FB03235B09884AFC
:1029800011665366136C23F400231364136C43F431
:1029900000631364136C43F00803136407E0804A78
:1029A000936923F0010393617E4B00221A60237C1C
:1029B000002B6DD07A4AD16921F48071637C1B02AF
:1029C00003F480730B43D361D36923F01003A17C1C
:1029D00081F0010143EA0113D361D36923F00403B9
:1029E000E27C002A14BF0422002213436C4AD36104
:1029F000D36923F00203227D002A14BF02220022A1
:102A00001343674AD361D16921F00101237C0B4351
:102A1000D361A269644B1A60614A136A23F001030F
:102A20001362237F002B00F0E480116A21F0100173
:102A3000637F1B0103F010030B431362116A21F43F
:102A40007C11A37F013B1B0403F47C130B43136233
:102A5000116A21F47061E37F013B1B0203F4706390
:102A60000B431362116A21F00101237F0B431362B0
:102A70004E4B11468A6812F0200F40F09D80013BBA
:102A8000F8D1474B4FF480321A6240F6032634E007
:102A9000434AD36923F00103D361434B00221A60F8
:102AA000BAE701A8FFF720FD019B3B4AA2FB0323E5
:102AB0009B0C03EB8301C901384AA2FB01014909C0
:102AC00003EB4303DB01A2FB03235B09344A91655B
:102AD000D365136C23F480231364136C43F4806375
:102AE0001364136C43F00403136482E02C4A136BE9
:102AF00023F00703136339E00026304602B070BDAF
:102B00006079FFF7A3FC06460028F6D1C5B1AA8874
:102B1000234B9A64EA88DA641A6CA97822F480322A
:102B200042EA01421A641A6C697822F4807242EA1D
:102B300001221A641A6C22F0010229780A431A64ED
:102B400094F82530002BD1D0154A116B21F00701E4
:102B500094F8273003F007030B431363136B23F43C
:102B60007F4394F8261043EA0123136301A95A20F6
:102B7000FFF7A4FD0E490A68019B0748A0FB030369
:102B8000DB0803F47F0322F47F0213430B6009493F
:102B90005820FFF793FDB0E783DE1B43ABAAAAAA38
:102BA00000001F405400022058000220FFFF1F00B9
:102BB00000000440A8000220002D3FF472AFAA8A52
:102BC000294B9A65EA8ADA651A6CA97C22F480227C
:102BD00042EA81421A641A6C697C22F4806242EAF9
:102BE00081221A641A6C297C22F0040242EA8102D2
:102BF0001A641D4A516821F4702194F820301B0496
:102C000003F470230B435360516821F4706194F80E
:102C100021301B0203F470630B435360516821F0B1
:102C20000F0194F8223003F00F030B435360A2F519
:102C3000D812116894F823301B0203F4706321F456
:102C400070610B431360136843F000431360074B3C
:102C500002F5D812D068516888423FF451AF013B69
:102C6000F8D140F6032648E700001F40FFFF1F0091
:102C70002DE9F04182B080460F468DF804008DF8B2
:102C8000051000F08DF9394A137B537301228DF83A
:102C90000620002B55D00024344D04E001342A7B5B
:102CA000E3B29A424DD9E6B2AB6853F82630002B16
:102CB000F4D01A79022AF1D01A68996801A89047CD
:102CC0000028EBD06E73002FE8D140F203160023EA
:102CD0008DF80630254B1B7BEBB10024234D25E0FE
:102CE00001342A7BE3B29A4215D95FFA84F8AB68C3
:102CF00053F82830002BF3D01A79012AF0D01A6843
:102D0000996801A890470028EAD085F80D80002F27
:102D1000E6D14FF4827600F035F9304602B0BDE8D6
:102D2000F08101342A7BE3B29A42F4D9E3B2AA6873
:102D300052F82330002BF4D01A68996801A8904704
:102D4000EFE70A4C236853F82800FFF7BBFC84F830
:102D5000058006460028BAD102238DF80630034BC1
:102D60001B7B002BD7D00024004DBEE7440002207F
:102D700060B170B506460C460025204600F017F8F5
:102D800001351C34AE42F8D1002070BD00207047E0
:102D900043694FF0010C0CFA01FC23EA0C038A4052
:102DA0001A434261704781607047C160704730B418
:102DB0000168446851F82430027A012A50D0022A6E
:102DC00053D0002A49D0427A920002F0040223F044
:102DD00014031343827A43EA0213C27A920102F087
:102DE000400223F474631343027B120202F4706204
:102DF000134323F00043427B43EAC27341F824307B
:102E0000037C002B34D10268416852F8213023F44E
:102E1000803342F82130037B012B43D04268436961
:102E200003EB8203D3F8802022F00F02C3F8802046
:102E30004368426902EB8302D2F88010837B03F07F
:102E40000F030B43C2F88030C37B23B14269416852
:102E500001238B40D36130BC704723F00203B2E7FB
:102E600023F0010343F00203ADE743F00303AAE7B5
:102E70004168026852F8213023F4781342F8213077
:102E800052F82140437C5B0403F47813234342F857
:102E900021300268416852F8213043F4803342F80F
:102EA0002130B8E741694B69027E22B1012A08D07E
:102EB00042695361B2E7416801228A4023EA020372
:102EC000F6E745680124AC4023430A6822EA04047B
:102ED000427EAA4022430A60EAE7000010B5214B77
:102EE0009B682AB1144600F1100253F82220226098
:102EF000103043F820101B4B5B6913F4803F30D037
:102F0000184B0022C3F88420BFF34F8FD3F88030D2
:102F1000C3F3C904C3F34E334FEA431C43F6E07EC8
:102F200010480CEA0E01234641EA8372C0F86C2275
:102F3000013BB3F1FF3FF7D1ACF1200C1CF1200FA6
:102F4000EFD1BFF34F8FBFF36F8FBFF34F8FBFF33F
:102F50006F8F044B0022C3F85022BFF34F8FBFF393
:102F60006F8F10BD00ED00E0002808DB420900F083
:102F70001F00012303FA00F0014B43F822007047C1
:102F800000E100E0054B1B68002B04DD013B034A18
:102F90001360002B00DD704762B6FCE75C00022086
:102FA00072B6024A13680133136070475C00022056
:102FB00008B50A4B1B6853F8202000F01F000123BE
:102FC00003FA00F0064B586258605B6822B1536800
:102FD00013B1117B9068984708BD00BF60000220C4
:102FE0000000024038B5044600F01F0500222946C3
:102FF0000B4800F047F80B4B1B6853F824306BB1BB
:1030000001221A735A6812B1197B986890470121FE
:10301000A940034B596259605A68D96038BD00BF56
:10302000000002406000022008B5012200F01F01EC
:10303000024800F027F8002008BD00BF0000024051
:1030400008B5002200F01F01024800F01BF8002024
:1030500008BD00BF0000024000F01F004001014B0E
:10306000195070471004024008B50A4600F01F01CD
:10307000014800F017F808BD000002400048704702
:103080000000024032B18269012303FA01F11143C9
:10309000816170478369012202FA01F123EA01018B
:1030A0008161704700EB4113B3F81E3413F4004FF5
:1030B00012D100EB4110B0F81E34C2F30E0203F43B
:1030C00000431343A0F81E34B0F8163403F4004351
:1030D0001A43A0F81624704700EB4110B0F81E34D4
:1030E000C2F3080203F47E431343A0F81E34B0F881
:1030F000163403F47E431A43A0F81624704708B52B
:103100000020FFF755FF08BD08B50120FFF750FF6D
:1031100008BD08B50220FFF74BFF08BD08B5032026
:10312000FFF746FF08BD08B50420FFF741FF08BDC3
:1031300008B50520FFF73CFF08BD08B50620FFF7DE
:1031400037FF08BD08B50720FFF732FF08BD08B5F7
:103150000820FFF72DFF08BD08B50920FFF728FF5D
:1031600008BD08B50A20FFF723FF08BD08B50B20EE
:10317000FFF71EFF08BD08B50C20FFF719FF08BDBB
:1031800008B50D20FFF714FF08BD08B50E20FFF7A6
:103190000FFF08BD08B50F20FFF70AFF08BD08B5EF
:1031A0001020FFF705FF08BD08B51120FFF700FF4D
:1031B00008BD08B51220FFF7FBFE08BD08B51320B7
:1031C000FFF7F6FE08BD08B51420FFF7F1FE08BDB5
:1031D00008B51520FFF7ECFE08BD08B51620FFF76F
:1031E000E7FE08BD08B51720FFF7E2FE08BD08B5E9
:1031F0001820FFF7DDFE08BD08B51920FFF7D8FE3F
:1032000008BD08B51A20FFF7D3FE08BD08B51B207E
:10321000FFF7CEFE08BD08B51C20FFF7C9FE08BDAC
:1032200008B51D20FFF7C4FE08BD08B51E20FFF736
:10323000BFFE08BD08B51F20FFF7BAFE08BD38B5B0
:103240000020FFF71BFFC568002404E06D0801346F
:10325000E4B2202C06D015F0010FF7D02046FFF77E
:10326000C1FEF3E738BD0000154B53F82030154A76
:1032700052F8201093F83420012A0CD99A68012AB8
:1032800014D01A6812880A871A6802321A609A687B
:10329000023A9A6070471A68127881F838201A68E2
:1032A00001321A609A68013A9A6070471A68127877
:1032B0000A871A6801321A609A68013A9A60704760
:1032C000640002209C0D0002154B53F82030154A73
:1032D00052F8201093F83420012A0CD9DA68012A18
:1032E00014D05A68898F11805A6802325A60DA689D
:1032F000023ADA6070475A6891F83C1011705A68C7
:1033000001325A60DA68013ADA607047898F5A6888
:1033100011705A6801325A60DA68013ADA6070470F
:10332000640002209C0D000210B50F4B53F82030B2
:103330000E4A52F820405A6822F002025A601A6976
:1033400022F010021A61A37C33B900232374A38FE7
:103350009BB2022B05D010BD04F1360000F058FBE3
:10336000F3E70023A387F6E79C0D00026400022028
:1033700010B50F4B53F820400E4B53F820305A68CD
:1033800022F004025A601A6922F020021A61E37CDA
:1033900033B900236374E38F9BB2022B05D010BDB9
:1033A00004F1350000F034FBF3E70023E387F6E790
:1033B000640002209C0D000238B5244B53F82050C5
:1033C000234B53F8204094F83900FFF739FEE38F80
:1033D0009BB2022B11D0E368BBB90023C5F89C3027
:1033E0002B6923F020032B61E37CFBB9002363747A
:1033F000E38F9BB2022B1ED038BDE369002BEAD0CD
:10340000226A002120469847E5E7616894F8390070
:10341000FFF722FEE16894F83900FFF725FE00234C
:10342000E36094F83900FFF7FFFDE5E704F13500AC
:1034300000F0EEFADAE70023E387E369002BDBD044
:10344000226A022120469847D6E700BF9C0D000261
:103450006400022070B582B005460E46394B53F821
:10346000204001A9384B185CFFF728F9374B53F877
:1034700025301A7C002A50D15B7C002B4FD101985B
:10348000FEF7D8FA05463046FEF7D4FA4FF08341EE
:10349000FEF728FB01462846FEF7D8FB0646FEF756
:1034A00071FC0546FEF7C6FA01463046FEF710FAF3
:1034B0004FF08341FEF716FB4FF07C51FEF70AFAFE
:1034C000FEF760FCC2B2102A24D0A368C3F3033312
:1034D000012B26D0236823F0020343F0010323606D
:1034E000A368C3F30333012BFAD1A16A184B0B4035
:1034F000C5F313051D43A562636A23F00F0302F0B1
:103500000F021A436262236823F003032360002042
:1035100002B070BD01350022D7E70220F8E7022093
:10352000F6E7A16A0A4B0B40C5F313051D43A562DC
:10353000636A23F00F0302F00F021A436262002055
:10354000E6E700BF9C0D0002C40D000264000220EB
:103550000000F0FF2DE9F04383B007460D46164604
:103560006A4B53F8204001A9694B185CFFF7A6F895
:103570006B1E05F13F0E4FF0000C03F801CF7345B1
:10358000FBD1644B43F82750236823F0020343F038
:1035900001032360A368C3F30333012BFAD123692A
:1035A00043F00103236131683846FFF753FF81463A
:1035B00018B1484603B0BDE8F083F3792269590099
:1035C00001F0020122F082020A439B0103F0800312
:1035D00013432361226922F46042F3791B0303F44D
:1035E000604313432361226922F4E052F3795B02C2
:1035F00003F4E05313432361F37985F834303379CE
:10360000002B67D1236923F004032361226922F48C
:10361000C022B3795B0403F4C02313432361D4F8BD
:103620008C2022F00202B3795B0003F00203134303
:10363000C4F88C30337A002B5ED1236943F4807355
:103640002361737A002B5CD1236943F400732361F7
:10365000236823F0030323604FF00008A5F83C80A3
:10366000A5F83E80337A85F83730737A85F838309C
:10367000B37A85F83930F37A85F83A30C5F81C808A
:10368000C5F82480C5F82C80C5F82080C5F82880AE
:10369000C5F83080414605F1350000F0CCF94146CF
:1036A00005F1360000F0C7F91B4B33F917504246BD
:1036B0001A4B53F827102846FFF710FC2846FFF74F
:1036C00053FC636843F480736360636843F0800372
:1036D00063606EE7236943F0040323617379226911
:1036E000D90001F0080122F048020A435B0103F00F
:1036F00040031343236189E7236923F48073236123
:103700009FE7236923F400732361A1E79C0D000266
:10371000C40D000264000220D00D0002E40D00027E
:10372000F8B51C4B53F820502B7C83BB06461A4B34
:1037300053F820402960AA6001232B740222AA8733
:10374000236943F0100323616261FFF78DFD0227B7
:1037500003E0636913F4C07F17D1AB6843B16369B9
:1037600013F0020FF5D067613046FFF77DFDF0E7FB
:103770000020636913F0020FFBD0236923F01003CC
:10378000236100232B74A887F8BD0120F1E70220F4
:10379000FAE700BF640002209C0D000270B5194BCF
:1037A00053F820506B7C03B970BD0446164B53F898
:1037B0002060FFF789FDEB682BB9EB691BB12A6A22
:1037C000002128469847EB6843B12B7D012B16D08A
:1037D000042373614FF400737361E5E72046FFF73C
:1037E000C7FD2B7D032B07D0EB69002BF0D02A6A95
:1037F000022128469847EBE704232B75F4E70223C0
:103800002B75E5E7640002209C0D000270B5124B99
:1038100053F820502B7C6BB10446104B53F82060BA
:10382000AB6843B96B6A1BB1AA6A01212846984765
:10383000AB682BB170BDFFF717FD02237361F9E789
:103840002046FFF771FD6B6A1BB1AA6A0221284668
:10385000984702237361EDE7640002209C0D00028B
:1038600010B5174B53F82030164A52F820405A69C9
:1038700012F0800F12D040F20162E28780225A617A
:1038800094F83830012B17D00021FFF795FDE36A3B
:103890001BB1226B03212046984710BD5A6912F4D0
:1038A000807F06D040F20362E2874FF480725A6153
:1038B000E6E70123E387E3E7FFF75AFDE7E700BF09
:1038C0009C0D00026400022070B51C4B53F8206070
:1038D0001B4B53F820502B7D032B12D0042B25D0EB
:1038E000022B00D070BD03232B75AB69C3F30B0310
:1038F000C6F8903008237361736843F0080373605F
:10390000F0E70446736913F0080FEBD0EB691BB1C5
:103910002A6A0421284698472046FFF729FD0123FB
:103920002B75736823F008037360DBE701232B75A5
:10393000736823F008037360D4E700BF9C0D000296
:103940006400022038B50446124B53F820506B69CE
:1039500013F4C07F13D16B6813F0040F03D06B69AD
:1039600013F0040F0ED16B6813F0020F03D06B69D4
:1039700013F0020F09D12046FFF7A6FF38BDFFF76D
:103980006FFFFBE7FFF70AFFEDE72046FFF73EFF7B
:10399000F1E700BF9C0D000208B50020FFF7D2FF41
:1039A00008BD08B50120FFF7CDFF08BD08B502200E
:1039B000FFF7C8FF08BD08B50320FFF7C3FF08BD28
:1039C00008B50420FFF7BEFF08BD08B50520FFF7C6
:1039D000B9FF08BD084A136843F000431360074B62
:1039E0004BF231621A604CF278221A605A6822F067
:1039F00001025A60704700BF0000044000801A4076
:103A0000024A136801331360704700BF8C00022024
:103A100010B50446FFF7C4FA2378DBB2FF2B08D0B9
:103A200023780133DBB223700024FFF7ABFA204682
:103A300010BD0124F9E738B504460D46FFF7B0FA8A
:103A40002570FFF79FFA002038BD70472DE9F04F31
:103A500083B006460F4601929846DDF83090DDF8B7
:103A600038A00F9B13F0030F14D10D9B53450FD2B9
:103A70000D9BAAEB0305019C25444FF0200B224629
:103A80000134434639465846B047AC42F7D102E0CC
:103A9000154600E0019D0D9B7BB10D9B09EB030BCF
:103AA0005C46AB44ABEB04024346394614F8010DC7
:103AB000B0474C45F6D10D9B1D440F9B13F0020FF0
:103AC0000ED0019BEC1AA2450AD94FF020092A46D4
:103AD0004346013539464846B04701345445F6D38C
:103AE000284603B0BDE8F08F2DE9F04385B0DDF83E
:103AF00030E00D9C9DF83880109F119D129E16F0AD
:103B0000020F33D17DB116F0010F00F08F80B8F1B4
:103B1000000F02D116F00C0F00D0013DBC4215D2AF
:103B20001F2C04D912E0BC420DD21F2C0BD804F17B
:103B3000FF3CF4444FF0300901340CF8019FA742D8
:103B400001D91F2CF8D916F0010F0FD0A5420DD9BD
:103B50001F2C0BD804F1FF3CF4444FF03009013422
:103B60000CF8019FAC4201D21F2CF8D916F0100FAF
:103B700015D016F4806F00D124BB0F9F102F2CD0CE
:103B80000F9F022F05D11F2C03D862270EF8047057
:103B900001341F2C0CD830270EF8047001341F2C70
:103BA00006D8B8F1000F31D02D270EF8047001347B
:103BB000039602950194CDF800E0FFF747FF05B0AA
:103BC000BDE8F083BC4201D0AC42D6D1B4F1010CC7
:103BD00015D00F9F102F12D1023C1F2C8CBF002735
:103BE000012716F0200C00D15FB9BCF1000FD0D036
:103BF000002FCED058270EF804700134C9E7644670
:103C0000BBE778270EF804700134C2E716F0040F02
:103C100004D02B270EF804700134C9E716F0080F02
:103C2000C6D020270EF804700134C1E7BC429DD2F3
:103C30001F2C7FF67CAF99E72DE9F04190B0169CE0
:103C4000189DDDF86C802CB928F0100618F4806FF0
:103C500034D1B04618F0200F14BF412761270DF171
:103C6000200E00260A3F00E06446B4FBF5FC05FB8D
:103C70001C4C5FFA8CFCBCF1090F94BF0CF1300CAA
:103C8000BC445FFA8CFC01360EF801CBB4FBF5FCAA
:103C9000AC4201D31F2EE7D9CDF818801A9C0594A9
:103CA000199C049403959DF85C400294019608AC1D
:103CB0000094FFF719FF10B0BDE8F081B04626462A
:103CC000EAE72DE9F04F95B0089009910A920B931D
:103CD0001E9C1F9D229EDDF88C80DDF898B054EA72
:103CE000050305D12BF010031BF4806F40D19B46D8
:103CF0001BF0200F14BF4FF0410A4FF0610A0DF185
:103D000030090027AAF10A0A01E004460D463246AE
:103D1000434620462946FEF755F8D2B2092A94BFF9
:103D200030325244D2B2013709F8012B32464346B1
:103D300020462946FEF746F8B44275EB080301D346
:103D40001F2FE2D9CDF818B0259B0593249B04932F
:103D500003969DF88030029301970CAB00930B9B68
:103D60000A9A09990898FFF7BFFE15B0BDE8F08FD1
:103D70009B460027E6E700002DE9F04F91B0824610
:103D80000C4609921D461A9E0696DDF86CB0324626
:103D90005B4630465946FDF71DFD002800F00081C6
:103DA0004FF0FF32AA4B30465946FDF73BFD002845
:103DB00040F0F6804FF0FF326FF4801330465946E2
:103DC000FDF712FD002840F0EB8000220023069E44
:103DD00030465946FDF708FD002840F0F680069A67
:103DE0000792CDF820B01E9B13F480630F931C9BA9
:103DF00008BF06231C93DDF81C90DDF82080C8F373
:103E00000A50A0F2FF30FDF713FA81A3D3E9002393
:103E1000FDF778FA80A3D3E90023FDF7BDF8064645
:103E20000F46C8F31308484648F07F5141F440114B
:103E30000022884BFDF7AEF879A3D3E90023FDF704
:103E400061FA02460B4630463946FDF7A5F8FDF704
:103E5000F3FC0E90FDF7ECF906460F4672A3D3E98A
:103E60000023FDF74FFA00227B4BFDF795F8FDF795
:103E7000E3FC80466EA3D3E9002330463946FDF7C4
:103E800041FA06460F46CDF828804046FDF7D0F9A6
:103E900069A3D3E90023FDF735FA02460B46304605
:103EA0003946FDF777F806460F4602460B46FDF702
:103EB00029FA8046894632463B4630463946FDF768
:103EC0006BF8CDE90C010022644B40464946FDF7F2
:103ED00043FB0022624BFDF75FF802460B4640466B
:103EE0004946FDF739FB00225E4BFDF755F80246C7
:103EF0000B4640464946FDF72FFB80468946324631
:103F00003B4600204FF08041FDF744F802460B4647
:103F100040464946FDF740F802460B46DDE90C01F4
:103F2000FDF71AFB0022504BFDF736F80A9B03F20F
:103F3000FF3600223305FDF7E5F906460F46079ADE
:103F4000089BFDF76FFC002844D1CDE90A670E9F5E
:103F500007F16303C72B34BF042605261E9B13F409
:103F6000006F00F0888036A3D3E90023DDF81C90B1
:103F70004846DDF820804146FDF74AFC002875D010
:103F800031A3D3E9002348464146FDF72DFC002824
:103F90006CD01C9BBB4229DDD81B431E1C9327E021
:103FA0001E9B04931D9B03931C9B0293069A5B46E6
:103FB000CDE900232B46099A2146504600F0E0F84F
:103FC0008046404611B0BDE8F08F07960BF10043E4
:103FD000089308E70E9B013B0E930022204B3046CE
:103FE0003946FDF7B9FACDE90A01B0E700231C9381
:103FF0001E9B43F480631E931D9B002B40F0AE80FC
:104000001E4698464FF000094F46CDF8389049E0DB
:10401000FB799F501344D33FB3C8608B288AC63FB7
:1040200061436F63A787D23F71A379094F930A4019
:104030001655B5BBB16B0240EF39FAFE422EE63F92
:104040002D431CEBE2361A3F0000000080842E4115
:10405000FFFFEF7F0000F83F0000E03F00002C4032
:1040600000002440000018400000F03F0F9B13B1F7
:104070001C9B002B6FD11D9B9E4272D21D9BA3EBFC
:104080000608371E18BF01271E9B17EA53096BD17C
:104090000E9B3BB1DDE90A2307980899FDF75CFA0E
:1040A000079008910022002306985946FDF79CFBD3
:1040B00000285DD11E9B23F400630493CDF80C808F
:1040C0001C9B0293079A089BCDE900232B46DDF841
:1040D00024B05A462146504600F052F88046002F40
:1040E0003FF46FAF1E9B13F0200F00F101072B462A
:1040F0000246214614BF45206520D047052305937D
:10410000013E0496002303930A2302930E99CB0FDA
:1041100001930029B8BF494200912B463A462146F7
:104120005046FFF789FD8046B9F1000F3FF449AFD3
:10413000A0EB0B061D9BB3427FF643AF20279946A9
:1041400042462B4608F1010821463846D047013641
:10415000B145F5D835E7013B1C938CE700260E9658
:104160008CE74FF000088CE74F464FF000088FE7D0
:10417000089901F1004308939CE700BF000000008C
:104180002DE9F04F97B007900C9192469B46DDE9E0
:104190002089229E42464B4640464946FDF71AFB7F
:1041A000002841D04FF0FF326FF48013404649465B
:1041B000FDF71AFB002846D14FF0FF32B04B4046C6
:1041C0004946FDF72FFB00284CD1A9A3D3E90023D2
:1041D00040464946FDF726FB00285BD1A6A3D3E95C
:1041E000002340464946FDF7FFFA002852D100223D
:1041F000002340464946FDF7F7FA002858D100232E
:104200000D93249B13F480645DD0092E40F2B78097
:104210000EAB00243022013403F8012B013E1F2C89
:1042200052D8092EF7D84FE0249B0393239B029387
:1042300003230193934B00935B4652460C990798D6
:10424000FFF704FC58E1249B0393239B0293042370
:1042500001938D4B00935B4652460C990798FFF7EC
:10426000F5FB49E1249B13F00402884B884908BF01
:104270000B46002A14BF0422032224990391239998
:104280000291019200935B4652460C990798FFF702
:10429000DDFB31E1249B0493239B03930296CDE93C
:1042A00000895B4652460C990798FFF765FD23E1AC
:1042B00042464B4600200021FCF76CFE80468946B2
:1042C00001230D939DE7062640464946FDF7B4FAC3
:1042D0000546704B03EBC603D3E90023CDE9082361
:1042E000FCF7A6FF02460B4640464946FCF752FE45
:1042F000DDE90823FDF706F802460B46CDE90A235F
:10430000FDF7C2FA0746FCF783FF02460B46DDE9DC
:104310000A01FCF73FFE02460B46CDE90A230022C4
:104320005D4BFDF77FFA60B301373846FCF770FF4D
:1043300002460B46DDE90801FDF760FA08B10135D8
:104340000027002E71D12846FCF772FF02460B466B
:1043500040464946FCF71EFE06460F4600224E4BDD
:10436000FDF742FA30B100224B4B30463946FDF79B
:1043700059FA70B315F0010F2BD0013529E0002454
:10438000A2E70022444BDDE90A01FDF72DFA0028DF
:10439000D7D117B117F0010FD3D00137D1E71F29BB
:1043A00000F2AD80BCF1000F3DD00EAB1A190C46E7
:1043B0003020013402F8010F202C0AD0E3430B44D3
:1043C000F342F6D104F158036B442E2203F8202C5B
:1043D000013404F158030DEB0302213A2F491F2C3D
:1043E00078D8013481FB0530EB17C3EBA00303EB56
:1043F0008300A5EB4005303502F8015F1D46002B18
:10440000EDD1249B03F00303012B2AD01F2C66D887
:104410000D9B002B46D004F158036B442D2203F86A
:10442000202C01345BE00C46CCE704F158030DEB83
:1044300003002138DFF868E01F2CCAD806F1FF3CE2
:10444000611CAEFB0732D20802EB8203A7EB4303E9
:10445000303300F8013F092FA1D9664617460C46B4
:10446000EAE7239B002BD1D04EE000BFAFF30080E2
:104470000000000065CDCD410000000065CDCDC13C
:10448000FFFFEF7F180E00021C0E00020C0E000250
:10449000140E0002280E00020000E03F6766666608
:1044A000CDCCCCCC249B13F0040F07D004F15803DF
:1044B0006B442B2203F8202C013410E0249B13F0D2
:1044C000080F0CD004F158036B44202203F8202C71
:1044D000013404E0249B03F00303012B11D0249B3F
:1044E0000393239B029301940EAB00935B465246C9
:1044F0000C990798FFF7AAFA17B0BDE8F08F0C46A1
:1045000067E7239B002BEAD00D9B1BB9249B13F07C
:104510000C0F02D0239B013B2393239BA3427FF6E6
:1045200075AF1F2C3FF672AF04F158036B44213B6B
:1045300030222399013403F8012F8C42BFF466AF77
:104540001F2CF7D962E700BF00B9704708B5FDF727
:104550006FFF08BD2DE9F04F91B017461C46DDF8FE
:104560006880B1F100098C4B14BF82469A462078CE
:10457000002800F0FA824FF0000B65E1621C4FF05A
:10458000000C144612F8013BA3F1200110290AD8AF
:10459000DFE801F02E090931090909090909092B88
:1045A000092809092500A3F13002D2B2092A25D928
:1045B0002A2B31D0002523782E2B37D000262378C4
:1045C000683B122B6ED8DFE803F05F6DC96D546D48
:1045D0006D6D6D6D6D6D6A6D6D6D6D6DCD004CF0B9
:1045E000010CCEE74CF0020CCBE74CF0040CC8E712
:1045F0004CF0080CC5E74CF0100CC2E7002505EBA9
:10460000850503EB4505303D14F8013FA3F1300269
:10461000D2B2092AF3D9CEE758F8045B002D01DBAA
:104620000134C8E74CF0020C6D42F9E74CF4806CA1
:10463000611C6378A3F13002D2B2092A04D92A2B73
:1046400011D00C460026BAE7002606EB860603EBDF
:104650004606303E11F8013FA3F13002D2B2092ADA
:10466000F3D90C46ABE758F8046B26EAE676023439
:10467000A5E763786C2B03D04CF4807C013411E007
:104680004CF4407C02340DE06378682B03D04CF08E
:10469000800C013406E04CF0C00C023402E04CF413
:1046A000807C01342078A0F12503532B00F2548242
:1046B000DFE813F048025202520252025202520242
:1046C000520252025202520252025202520252024A
:1046D000520252025202520252025202520252023A
:1046E000520252025202520252025202520252022A
:1046F000520252025F0146015F015202520252020F
:104700005202520252025202520252025202520209
:10471000520252025202520252025C0052025202F1
:1047200052025202520252025202520252025C00E1
:1047300080015C005F0146015F0152025C00520291
:1047400052025202520252025C00320252025202E1
:10475000BA0152025C00520252025C004CF4007C2E
:1047600001349FE74CF4807C01349BE700F0DF03C9
:10477000582B13D06F2800F01382622800F01382A8
:104780002CF0100C0A23692801D0642837D11CF4BE
:10479000806F0FD00CE000BF4B3A000258282CD19C
:1047A0004CF02002102322F00C0C12F4806F05D084
:1047B0002CF0010C692824D0642822D01CF4007F3E
:1047C00040F08D801CF4807F40F0A1801CF0400FF1
:1047D00000F0AF8058F8042BD2B2CDF814C0049585
:1047E000039602930023019300923B465A464946A2
:1047F0005046FFF721FA834621E01023C3E76246C3
:10480000D1E71CF4007F2BD11CF4807F4BD11CF02E
:10481000400F5DD058F8042BD2B2CDF814C00495E7
:1048200003960293D30F0193002AB8BF524200921D
:104830003B465A4649465046FFF7FEF98346013447
:104840002078002800F0938125283FF497AE0BF1E3
:1048500001053B465A464946D0470134AB46EFE78F
:1048600008F1070121F00701884658F8082B49682C
:10487000CDF820C007950696049300230593CB0F2F
:10488000029313460A46002909DB009301923B4636
:104890005A4649465046FFF714FA8346CFE75B4233
:1048A00061EB4102F1E758F8042BCDF814C00495F0
:1048B00003960293D30F0193002AB8BF524200928D
:1048C0003B465A4649465046FFF7B6F98346B6E797
:1048D0001CF0800F58F8042B18BF12B29DE708F1A6
:1048E000070828F00708CDF820C007950696002293
:1048F000049305920292F8E80223CDE900233B4697
:104900005A4649465046FFF7DCF9834697E7CDF80B
:1049100014C00495039602930023019358F8043BB6
:1049200000933B465A4649465046FFF785F9834671
:1049300085E71CF0800F58F8042B18BF92B24CE7A3
:10494000462808BF4CF0200C08F1070828F007089B
:10495000CDF810C003950296F8E80223CDE90023B4
:104960003B465A4649465046FFF70AFC8346013407
:1049700066E700F0DF03472B08BF4CF4006C00F043
:10498000FD00452808BF4CF0200C08F1070828F06E
:104990000708CDF810C003950296F8E80223CDE988
:1049A00000233B465A4649465046FFF7E5F9834601
:1049B000013445E71CF0020F1BD043460BF1010602
:1049C00053F8040B0B933B465A464946C0B2D047B6
:1049D000012D40F2D98005EB0B08324601363B46EB
:1049E00049462020D0474645F7D1AB44DDF82C801E
:1049F00018E0012D40F2CC800BF1FF331D4420263E
:104A00005A460BF1010B3B4649463046D047AB4571
:104A1000F6D105F1010B58F8040B3B462A464946EE
:104A2000C0B2D04701340BE7434653F8048B0C93D4
:104A3000002E14BF31464FF0FF3198F800000028D7
:104A400000F0AC80434613F8012F1AB1A8EB030223
:104A5000CA42F8D1A3EB08030B931CF480620D92B9
:104A600003D0B34228BF33460B931CF002030E93CE
:104A700006D0002800F08E805A460F950D9D29E043
:104A80000B9A531C954240F2878005EB0B039B1A4F
:104A90000F93CDF82C8098465A460BF1010B3B46FC
:104AA00049462020D047C345F6D1DDF82C806B1C49
:104AB0000B93DDF83CB098F800000028DCD114E03E
:104AC0001E4602F1010B3B464946D04718F8010F3C
:104AD00040B15A46002DF4D0731E002EF0D10F9D28
:104AE000934600E00F9D0E9B1BB90134DDF830802A
:104AF000A6E65E460B9B9D420CD93544A5EB030B05
:104B00002025324601363B4649462846D047B34524
:104B1000F7D1EAE7B346E8E74CF021030593082311
:104B200004930396102302930023019358F8043B47
:104B300000933B465A4649465046FFF77DF8834668
:104B400001347DE60BF101053B465A4649462520D6
:104B5000D0470134AB4673E60BF101053B465A469C
:104B60004946D0470134AB466AE64FF0000B5F453B
:104B700094BF07F1FF325A463B4649460020D047D2
:104B8000584611B0BDE8F08FDDF82C80B34649E7F8
:104B90005D463EE75E46ADE70B938CE7434659E73B
:104BA00008236246FFE50223FBE700BF0FB400B510
:104BB00085B006AA52F8043B039200924FF0FF32F0
:104BC00002A90448FFF7C6FC05B05DF804EB04B089
:084BD000704700BF49450002D7
:084BD8001CD2FF7F0100000068
:104BE00001000000A0000220580C0002380C000256
:0C4BF0000B01030090000220006CDC02AE
:0400000502000F31B5
:00000001FF
